:100040000EC015C014C013C012C011C010C00FC024
:100050000EC00DC00CC00BC00AC009C008C01124DE
:100060001FBECFE5D2E0DEBFCDBF3ED00AC1E8CF94
:10007000C49A2FEF39E648E1215030404040E1F783
:1000800000C00000C4989FEF29E638E1915020405D
:100090003040E1F700C0000094E0C49A80FF08C03F
:1000A0004FEF23ED30E3415020403040E1F707C0EF
:1000B0004FEF23EC39E0415020403040E1F700C0E1
:1000C0000000C4984FEF23EC39E04150204030400D
:1000D000E1F700C0000086959150F9F68FEF8FBDD3
:1000E000E0E0F0E009940895FF920F931F93CF93FF
:1000F000DF93E1E0F0E081E080935700E491E1BF1D
:10010000BC9AE0E8F2E0C591D49100E010E20C1B4B
:100110001D0BE0E0F0E085919491019609F457C041
:10012000CE3F8FE1D80710F081E0A2DFCE018F73C0
:100130009927892B11F085E09BDF01369EE0190796
:1001400010F087E095DF20EC32E22C1B3D0BE0EC59
:10015000F2E08FEF9FEF19C044918427482F42951A
:100160004827042E469546954025042E4695402561
:100170004770082E892F469507944795902D842720
:1001800006944795902584273196E217F30720F3CC
:10019000E2E8F2E0259134918217930711F082E0B2
:1001A00067DFE0ECF2E0859194918115E0EC9E0729
:1001B00040F41695079510548017910710F083E0CE
:1001C00057DFE0E0F0E083E080935700E895C49AC1
:1001D000FFEF27EA81E6F15020408040E1F700C0C0
:1001E0000000C4989FEFE3EDF0E39150E040F04051
:1001F000E1F700C00000FE01E054F10983E08093C4
:100200005700E895FE0180EC92E013E001E025E064
:10021000F22E27C010935700E89507B600FCFDCFDB
:10022000AC01405C5F4FBF01681B790B0DC0FC0146
:10023000A591B491F9010D0100935700E89511249F
:1002400007B600FCFDCF02969B01280F391F8417CB
:10025000950768F3F901E054F109F0925700E89529
:10026000F901E13C2FE1F207A8F2FE01F695E795CE
:10027000099480E090E0DF91CF911F910F91FF9062
:060280000895F894FFCF81
:0400000300000040B9
:00000001FF
